{
  "_format": "hh-sol-artifact-1",
  "contractName": "Harmony",
  "sourceName": "contracts/Token.sol",
  "abi": [
    {
      "inputs": [],
      "stateMutability": "nonpayable",
      "type": "constructor"
    },
    {
      "anonymous": false,
      "inputs": [
        {
          "indexed": true,
          "internalType": "address",
          "name": "owner",
          "type": "address"
        },
        {
          "indexed": true,
          "internalType": "address",
          "name": "spender",
          "type": "address"
        },
        {
          "indexed": false,
          "internalType": "uint256",
          "name": "value",
          "type": "uint256"
        }
      ],
      "name": "Approval",
      "type": "event"
    },
    {
      "anonymous": false,
      "inputs": [
        {
          "indexed": true,
          "internalType": "address",
          "name": "previousOwner",
          "type": "address"
        },
        {
          "indexed": true,
          "internalType": "address",
          "name": "newOwner",
          "type": "address"
        }
      ],
      "name": "OwnershipTransferred",
      "type": "event"
    },
    {
      "anonymous": false,
      "inputs": [
        {
          "indexed": false,
          "internalType": "address",
          "name": "account",
          "type": "address"
        }
      ],
      "name": "Paused",
      "type": "event"
    },
    {
      "anonymous": false,
      "inputs": [
        {
          "indexed": true,
          "internalType": "address",
          "name": "from",
          "type": "address"
        },
        {
          "indexed": true,
          "internalType": "address",
          "name": "to",
          "type": "address"
        },
        {
          "indexed": false,
          "internalType": "uint256",
          "name": "value",
          "type": "uint256"
        }
      ],
      "name": "Transfer",
      "type": "event"
    },
    {
      "anonymous": false,
      "inputs": [
        {
          "indexed": false,
          "internalType": "address",
          "name": "account",
          "type": "address"
        }
      ],
      "name": "Unpaused",
      "type": "event"
    },
    {
      "inputs": [
        {
          "internalType": "address",
          "name": "owner",
          "type": "address"
        },
        {
          "internalType": "address",
          "name": "spender",
          "type": "address"
        }
      ],
      "name": "allowance",
      "outputs": [
        {
          "internalType": "uint256",
          "name": "",
          "type": "uint256"
        }
      ],
      "stateMutability": "view",
      "type": "function"
    },
    {
      "inputs": [
        {
          "internalType": "address",
          "name": "spender",
          "type": "address"
        },
        {
          "internalType": "uint256",
          "name": "amount",
          "type": "uint256"
        }
      ],
      "name": "approve",
      "outputs": [
        {
          "internalType": "bool",
          "name": "",
          "type": "bool"
        }
      ],
      "stateMutability": "nonpayable",
      "type": "function"
    },
    {
      "inputs": [
        {
          "internalType": "address",
          "name": "account",
          "type": "address"
        }
      ],
      "name": "balanceOf",
      "outputs": [
        {
          "internalType": "uint256",
          "name": "",
          "type": "uint256"
        }
      ],
      "stateMutability": "view",
      "type": "function"
    },
    {
      "inputs": [],
      "name": "decimals",
      "outputs": [
        {
          "internalType": "uint8",
          "name": "",
          "type": "uint8"
        }
      ],
      "stateMutability": "view",
      "type": "function"
    },
    {
      "inputs": [
        {
          "internalType": "address",
          "name": "spender",
          "type": "address"
        },
        {
          "internalType": "uint256",
          "name": "subtractedValue",
          "type": "uint256"
        }
      ],
      "name": "decreaseAllowance",
      "outputs": [
        {
          "internalType": "bool",
          "name": "",
          "type": "bool"
        }
      ],
      "stateMutability": "nonpayable",
      "type": "function"
    },
    {
      "inputs": [
        {
          "internalType": "address",
          "name": "spender",
          "type": "address"
        },
        {
          "internalType": "uint256",
          "name": "addedValue",
          "type": "uint256"
        }
      ],
      "name": "increaseAllowance",
      "outputs": [
        {
          "internalType": "bool",
          "name": "",
          "type": "bool"
        }
      ],
      "stateMutability": "nonpayable",
      "type": "function"
    },
    {
      "inputs": [
        {
          "internalType": "address",
          "name": "to",
          "type": "address"
        },
        {
          "internalType": "uint256",
          "name": "amount",
          "type": "uint256"
        }
      ],
      "name": "mint",
      "outputs": [],
      "stateMutability": "nonpayable",
      "type": "function"
    },
    {
      "inputs": [],
      "name": "name",
      "outputs": [
        {
          "internalType": "string",
          "name": "",
          "type": "string"
        }
      ],
      "stateMutability": "view",
      "type": "function"
    },
    {
      "inputs": [],
      "name": "owner",
      "outputs": [
        {
          "internalType": "address",
          "name": "",
          "type": "address"
        }
      ],
      "stateMutability": "view",
      "type": "function"
    },
    {
      "inputs": [],
      "name": "pause",
      "outputs": [],
      "stateMutability": "nonpayable",
      "type": "function"
    },
    {
      "inputs": [],
      "name": "paused",
      "outputs": [
        {
          "internalType": "bool",
          "name": "",
          "type": "bool"
        }
      ],
      "stateMutability": "view",
      "type": "function"
    },
    {
      "inputs": [],
      "name": "renounceOwnership",
      "outputs": [],
      "stateMutability": "nonpayable",
      "type": "function"
    },
    {
      "inputs": [],
      "name": "symbol",
      "outputs": [
        {
          "internalType": "string",
          "name": "",
          "type": "string"
        }
      ],
      "stateMutability": "view",
      "type": "function"
    },
    {
      "inputs": [],
      "name": "totalSupply",
      "outputs": [
        {
          "internalType": "uint256",
          "name": "",
          "type": "uint256"
        }
      ],
      "stateMutability": "view",
      "type": "function"
    },
    {
      "inputs": [
        {
          "internalType": "address",
          "name": "to",
          "type": "address"
        },
        {
          "internalType": "uint256",
          "name": "amount",
          "type": "uint256"
        }
      ],
      "name": "transfer",
      "outputs": [
        {
          "internalType": "bool",
          "name": "",
          "type": "bool"
        }
      ],
      "stateMutability": "nonpayable",
      "type": "function"
    },
    {
      "inputs": [
        {
          "internalType": "address",
          "name": "from",
          "type": "address"
        },
        {
          "internalType": "address",
          "name": "to",
          "type": "address"
        },
        {
          "internalType": "uint256",
          "name": "amount",
          "type": "uint256"
        }
      ],
      "name": "transferFrom",
      "outputs": [
        {
          "internalType": "bool",
          "name": "",
          "type": "bool"
        }
      ],
      "stateMutability": "nonpayable",
      "type": "function"
    },
    {
      "inputs": [
        {
          "internalType": "address",
          "name": "newOwner",
          "type": "address"
        }
      ],
      "name": "transferOwnership",
      "outputs": [],
      "stateMutability": "nonpayable",
      "type": "function"
    },
    {
      "inputs": [],
      "name": "unpause",
      "outputs": [],
      "stateMutability": "nonpayable",
      "type": "function"
    }
  ],
  "bytecode": "0x60806040523480156200001157600080fd5b506040518060400160405280600781526020017f4861726d6f6e79000000000000000000000000000000000000000000000000008152506040518060400160405280600481526020017f484f4e4500000000000000000000000000000000000000000000000000000000815250816003908051906020019062000096929190620001c1565b508060049080519060200190620000af929190620001c1565b5050506000600560006101000a81548160ff021916908315150217905550620000ed620000e1620000f360201b60201c565b620000fb60201b60201c565b620002d6565b600033905090565b6000600560019054906101000a900473ffffffffffffffffffffffffffffffffffffffff16905081600560016101000a81548173ffffffffffffffffffffffffffffffffffffffff021916908373ffffffffffffffffffffffffffffffffffffffff1602179055508173ffffffffffffffffffffffffffffffffffffffff168173ffffffffffffffffffffffffffffffffffffffff167f8be0079c531659141344cd1fd0a4f28419497f9722a3daafe3b4186f6b6457e060405160405180910390a35050565b828054620001cf9062000271565b90600052602060002090601f016020900481019282620001f357600085556200023f565b82601f106200020e57805160ff19168380011785556200023f565b828001600101855582156200023f579182015b828111156200023e57825182559160200191906001019062000221565b5b5090506200024e919062000252565b5090565b5b808211156200026d57600081600090555060010162000253565b5090565b600060028204905060018216806200028a57607f821691505b60208210811415620002a157620002a0620002a7565b5b50919050565b7f4e487b7100000000000000000000000000000000000000000000000000000000600052602260045260246000fd5b611afb80620002e66000396000f3fe608060405234801561001057600080fd5b50600436106101165760003560e01c806370a08231116100a257806395d89b411161007157806395d89b41146102ab578063a457c2d7146102c9578063a9059cbb146102f9578063dd62ed3e14610329578063f2fde38b1461035957610116565b806370a0823114610249578063715018a6146102795780638456cb59146102835780638da5cb5b1461028d57610116565b8063313ce567116100e9578063313ce567146101b757806339509351146101d55780633f4ba83a1461020557806340c10f191461020f5780635c975abb1461022b57610116565b806306fdde031461011b578063095ea7b31461013957806318160ddd1461016957806323b872dd14610187575b600080fd5b610123610375565b6040516101309190611429565b60405180910390f35b610153600480360381019061014e919061119a565b610407565b604051610160919061140e565b60405180910390f35b61017161042a565b60405161017e91906115cb565b60405180910390f35b6101a1600480360381019061019c9190611147565b610434565b6040516101ae919061140e565b60405180910390f35b6101bf610463565b6040516101cc91906115e6565b60405180910390f35b6101ef60048036038101906101ea919061119a565b61046c565b6040516101fc919061140e565b60405180910390f35b61020d6104a3565b005b6102296004803603810190610224919061119a565b6104b5565b005b6102336104cb565b604051610240919061140e565b60405180910390f35b610263600480360381019061025e91906110da565b6104e2565b60405161027091906115cb565b60405180910390f35b61028161052a565b005b61028b61053e565b005b610295610550565b6040516102a291906113f3565b60405180910390f35b6102b361057a565b6040516102c09190611429565b60405180910390f35b6102e360048036038101906102de919061119a565b61060c565b6040516102f0919061140e565b60405180910390f35b610313600480360381019061030e919061119a565b610683565b604051610320919061140e565b60405180910390f35b610343600480360381019061033e9190611107565b6106a6565b60405161035091906115cb565b60405180910390f35b610373600480360381019061036e91906110da565b61072d565b005b606060038054610384906116fb565b80601f01602080910402602001604051908101604052809291908181526020018280546103b0906116fb565b80156103fd5780601f106103d2576101008083540402835291602001916103fd565b820191906000526020600020905b8154815290600101906020018083116103e057829003601f168201915b5050505050905090565b6000806104126107b1565b905061041f8185856107b9565b600191505092915050565b6000600254905090565b60008061043f6107b1565b905061044c858285610984565b610457858585610a10565b60019150509392505050565b60006012905090565b6000806104776107b1565b905061049881858561048985896106a6565b610493919061161d565b6107b9565b600191505092915050565b6104ab610c91565b6104b3610d0f565b565b6104bd610c91565b6104c78282610d72565b5050565b6000600560009054906101000a900460ff16905090565b60008060008373ffffffffffffffffffffffffffffffffffffffff1673ffffffffffffffffffffffffffffffffffffffff168152602001908152602001600020549050919050565b610532610c91565b61053c6000610ed2565b565b610546610c91565b61054e610f98565b565b6000600560019054906101000a900473ffffffffffffffffffffffffffffffffffffffff16905090565b606060048054610589906116fb565b80601f01602080910402602001604051908101604052809291908181526020018280546105b5906116fb565b80156106025780601f106105d757610100808354040283529160200191610602565b820191906000526020600020905b8154815290600101906020018083116105e557829003601f168201915b5050505050905090565b6000806106176107b1565b9050600061062582866106a6565b90508381101561066a576040517f08c379a00000000000000000000000000000000000000000000000000000000081526004016106619061158b565b60405180910390fd5b61067782868684036107b9565b60019250505092915050565b60008061068e6107b1565b905061069b818585610a10565b600191505092915050565b6000600160008473ffffffffffffffffffffffffffffffffffffffff1673ffffffffffffffffffffffffffffffffffffffff16815260200190815260200160002060008373ffffffffffffffffffffffffffffffffffffffff1673ffffffffffffffffffffffffffffffffffffffff16815260200190815260200160002054905092915050565b610735610c91565b600073ffffffffffffffffffffffffffffffffffffffff168173ffffffffffffffffffffffffffffffffffffffff1614156107a5576040517f08c379a000000000000000000000000000000000000000000000000000000000815260040161079c9061148b565b60405180910390fd5b6107ae81610ed2565b50565b600033905090565b600073ffffffffffffffffffffffffffffffffffffffff168373ffffffffffffffffffffffffffffffffffffffff161415610829576040517f08c379a00000000000000000000000000000000000000000000000000000000081526004016108209061156b565b60405180910390fd5b600073ffffffffffffffffffffffffffffffffffffffff168273ffffffffffffffffffffffffffffffffffffffff161415610899576040517f08c379a0000000000000000000000000000000000000000000000000000000008152600401610890906114ab565b60405180910390fd5b80600160008573ffffffffffffffffffffffffffffffffffffffff1673ffffffffffffffffffffffffffffffffffffffff16815260200190815260200160002060008473ffffffffffffffffffffffffffffffffffffffff1673ffffffffffffffffffffffffffffffffffffffff168152602001908152602001600020819055508173ffffffffffffffffffffffffffffffffffffffff168373ffffffffffffffffffffffffffffffffffffffff167f8c5be1e5ebec7d5bd14f71427d1e84f3dd0314c0f7b2291e5b200ac8c7c3b9258360405161097791906115cb565b60405180910390a3505050565b600061099084846106a6565b90507fffffffffffffffffffffffffffffffffffffffffffffffffffffffffffffffff8114610a0a57818110156109fc576040517f08c379a00000000000000000000000000000000000000000000000000000000081526004016109f3906114cb565b60405180910390fd5b610a0984848484036107b9565b5b50505050565b600073ffffffffffffffffffffffffffffffffffffffff168373ffffffffffffffffffffffffffffffffffffffff161415610a80576040517f08c379a0000000000000000000000000000000000000000000000000000000008152600401610a779061154b565b60405180910390fd5b600073ffffffffffffffffffffffffffffffffffffffff168273ffffffffffffffffffffffffffffffffffffffff161415610af0576040517f08c379a0000000000000000000000000000000000000000000000000000000008152600401610ae79061144b565b60405180910390fd5b610afb838383610ffb565b60008060008573ffffffffffffffffffffffffffffffffffffffff1673ffffffffffffffffffffffffffffffffffffffff16815260200190815260200160002054905081811015610b81576040517f08c379a0000000000000000000000000000000000000000000000000000000008152600401610b78906114eb565b60405180910390fd5b8181036000808673ffffffffffffffffffffffffffffffffffffffff1673ffffffffffffffffffffffffffffffffffffffff16815260200190815260200160002081905550816000808573ffffffffffffffffffffffffffffffffffffffff1673ffffffffffffffffffffffffffffffffffffffff1681526020019081526020016000206000828254610c14919061161d565b925050819055508273ffffffffffffffffffffffffffffffffffffffff168473ffffffffffffffffffffffffffffffffffffffff167fddf252ad1be2c89b69c2b068fc378daa952ba7f163c4a11628f55a4df523b3ef84604051610c7891906115cb565b60405180910390a3610c8b848484611013565b50505050565b610c996107b1565b73ffffffffffffffffffffffffffffffffffffffff16610cb7610550565b73ffffffffffffffffffffffffffffffffffffffff1614610d0d576040517f08c379a0000000000000000000000000000000000000000000000000000000008152600401610d049061152b565b60405180910390fd5b565b610d17611018565b6000600560006101000a81548160ff0219169083151502179055507f5db9ee0a495bf2e6ff9c91a7834c1ba4fdd244a5e8aa4e537bd38aeae4b073aa610d5b6107b1565b604051610d6891906113f3565b60405180910390a1565b600073ffffffffffffffffffffffffffffffffffffffff168273ffffffffffffffffffffffffffffffffffffffff161415610de2576040517f08c379a0000000000000000000000000000000000000000000000000000000008152600401610dd9906115ab565b60405180910390fd5b610dee60008383610ffb565b8060026000828254610e00919061161d565b92505081905550806000808473ffffffffffffffffffffffffffffffffffffffff1673ffffffffffffffffffffffffffffffffffffffff1681526020019081526020016000206000828254610e55919061161d565b925050819055508173ffffffffffffffffffffffffffffffffffffffff16600073ffffffffffffffffffffffffffffffffffffffff167fddf252ad1be2c89b69c2b068fc378daa952ba7f163c4a11628f55a4df523b3ef83604051610eba91906115cb565b60405180910390a3610ece60008383611013565b5050565b6000600560019054906101000a900473ffffffffffffffffffffffffffffffffffffffff16905081600560016101000a81548173ffffffffffffffffffffffffffffffffffffffff021916908373ffffffffffffffffffffffffffffffffffffffff1602179055508173ffffffffffffffffffffffffffffffffffffffff168173ffffffffffffffffffffffffffffffffffffffff167f8be0079c531659141344cd1fd0a4f28419497f9722a3daafe3b4186f6b6457e060405160405180910390a35050565b610fa0611061565b6001600560006101000a81548160ff0219169083151502179055507f62e78cea01bee320cd4e420270b5ea74000d11b0c9f74754ebdbfc544b05a258610fe46107b1565b604051610ff191906113f3565b60405180910390a1565b611003611061565b61100e8383836110ab565b505050565b505050565b6110206104cb565b61105f576040517f08c379a00000000000000000000000000000000000000000000000000000000081526004016110569061146b565b60405180910390fd5b565b6110696104cb565b156110a9576040517f08c379a00000000000000000000000000000000000000000000000000000000081526004016110a09061150b565b60405180910390fd5b565b505050565b6000813590506110bf81611a97565b92915050565b6000813590506110d481611aae565b92915050565b6000602082840312156110f0576110ef61178b565b5b60006110fe848285016110b0565b91505092915050565b6000806040838503121561111e5761111d61178b565b5b600061112c858286016110b0565b925050602061113d858286016110b0565b9150509250929050565b6000806000606084860312156111605761115f61178b565b5b600061116e868287016110b0565b935050602061117f868287016110b0565b9250506040611190868287016110c5565b9150509250925092565b600080604083850312156111b1576111b061178b565b5b60006111bf858286016110b0565b92505060206111d0858286016110c5565b9150509250929050565b6111e381611673565b82525050565b6111f281611685565b82525050565b600061120382611601565b61120d818561160c565b935061121d8185602086016116c8565b61122681611790565b840191505092915050565b600061123e60238361160c565b9150611249826117a1565b604082019050919050565b600061126160148361160c565b915061126c826117f0565b602082019050919050565b600061128460268361160c565b915061128f82611819565b604082019050919050565b60006112a760228361160c565b91506112b282611868565b604082019050919050565b60006112ca601d8361160c565b91506112d5826118b7565b602082019050919050565b60006112ed60268361160c565b91506112f8826118e0565b604082019050919050565b600061131060108361160c565b915061131b8261192f565b602082019050919050565b600061133360208361160c565b915061133e82611958565b602082019050919050565b600061135660258361160c565b915061136182611981565b604082019050919050565b600061137960248361160c565b9150611384826119d0565b604082019050919050565b600061139c60258361160c565b91506113a782611a1f565b604082019050919050565b60006113bf601f8361160c565b91506113ca82611a6e565b602082019050919050565b6113de816116b1565b82525050565b6113ed816116bb565b82525050565b600060208201905061140860008301846111da565b92915050565b600060208201905061142360008301846111e9565b92915050565b6000602082019050818103600083015261144381846111f8565b905092915050565b6000602082019050818103600083015261146481611231565b9050919050565b6000602082019050818103600083015261148481611254565b9050919050565b600060208201905081810360008301526114a481611277565b9050919050565b600060208201905081810360008301526114c48161129a565b9050919050565b600060208201905081810360008301526114e4816112bd565b9050919050565b60006020820190508181036000830152611504816112e0565b9050919050565b6000602082019050818103600083015261152481611303565b9050919050565b6000602082019050818103600083015261154481611326565b9050919050565b6000602082019050818103600083015261156481611349565b9050919050565b600060208201905081810360008301526115848161136c565b9050919050565b600060208201905081810360008301526115a48161138f565b9050919050565b600060208201905081810360008301526115c4816113b2565b9050919050565b60006020820190506115e060008301846113d5565b92915050565b60006020820190506115fb60008301846113e4565b92915050565b600081519050919050565b600082825260208201905092915050565b6000611628826116b1565b9150611633836116b1565b9250827fffffffffffffffffffffffffffffffffffffffffffffffffffffffffffffffff038211156116685761166761172d565b5b828201905092915050565b600061167e82611691565b9050919050565b60008115159050919050565b600073ffffffffffffffffffffffffffffffffffffffff82169050919050565b6000819050919050565b600060ff82169050919050565b60005b838110156116e65780820151818401526020810190506116cb565b838111156116f5576000848401525b50505050565b6000600282049050600182168061171357607f821691505b602082108114156117275761172661175c565b5b50919050565b7f4e487b7100000000000000000000000000000000000000000000000000000000600052601160045260246000fd5b7f4e487b7100000000000000000000000000000000000000000000000000000000600052602260045260246000fd5b600080fd5b6000601f19601f8301169050919050565b7f45524332303a207472616e7366657220746f20746865207a65726f206164647260008201527f6573730000000000000000000000000000000000000000000000000000000000602082015250565b7f5061757361626c653a206e6f7420706175736564000000000000000000000000600082015250565b7f4f776e61626c653a206e6577206f776e657220697320746865207a65726f206160008201527f6464726573730000000000000000000000000000000000000000000000000000602082015250565b7f45524332303a20617070726f766520746f20746865207a65726f20616464726560008201527f7373000000000000000000000000000000000000000000000000000000000000602082015250565b7f45524332303a20696e73756666696369656e7420616c6c6f77616e6365000000600082015250565b7f45524332303a207472616e7366657220616d6f756e742065786365656473206260008201527f616c616e63650000000000000000000000000000000000000000000000000000602082015250565b7f5061757361626c653a2070617573656400000000000000000000000000000000600082015250565b7f4f776e61626c653a2063616c6c6572206973206e6f7420746865206f776e6572600082015250565b7f45524332303a207472616e736665722066726f6d20746865207a65726f20616460008201527f6472657373000000000000000000000000000000000000000000000000000000602082015250565b7f45524332303a20617070726f76652066726f6d20746865207a65726f2061646460008201527f7265737300000000000000000000000000000000000000000000000000000000602082015250565b7f45524332303a2064656372656173656420616c6c6f77616e63652062656c6f7760008201527f207a65726f000000000000000000000000000000000000000000000000000000602082015250565b7f45524332303a206d696e7420746f20746865207a65726f206164647265737300600082015250565b611aa081611673565b8114611aab57600080fd5b50565b611ab7816116b1565b8114611ac257600080fd5b5056fea2646970667358221220fe41e692bb23dc449f5cc4bbed528d3b6de48ccb5aff8ab76a91c809ecf3f14764736f6c63430008070033",
  "linkReferences": {},
  "deployedLinkReferences": {}
}