{
  "_format": "hh-sol-artifact-1",
  "contractName": "StakeHarmony",
  "sourceName": "contracts/Staking.sol",
  "abi": [
    {
      "inputs": [
        {
          "internalType": "contract Token",
          "name": "_tokenAddress",
          "type": "address"
        }
      ],
      "stateMutability": "nonpayable",
      "type": "constructor"
    },
    {
      "anonymous": false,
      "inputs": [
        {
          "indexed": true,
          "internalType": "address",
          "name": "from",
          "type": "address"
        },
        {
          "indexed": false,
          "internalType": "uint256",
          "name": "amount",
          "type": "uint256"
        }
      ],
      "name": "Claimed",
      "type": "event"
    },
    {
      "anonymous": false,
      "inputs": [
        {
          "indexed": true,
          "internalType": "address",
          "name": "previousOwner",
          "type": "address"
        },
        {
          "indexed": true,
          "internalType": "address",
          "name": "newOwner",
          "type": "address"
        }
      ],
      "name": "OwnershipTransferred",
      "type": "event"
    },
    {
      "anonymous": false,
      "inputs": [
        {
          "indexed": false,
          "internalType": "address",
          "name": "account",
          "type": "address"
        }
      ],
      "name": "Paused",
      "type": "event"
    },
    {
      "anonymous": false,
      "inputs": [
        {
          "indexed": true,
          "internalType": "address",
          "name": "from",
          "type": "address"
        },
        {
          "indexed": false,
          "internalType": "uint256",
          "name": "amount",
          "type": "uint256"
        }
      ],
      "name": "Staked",
      "type": "event"
    },
    {
      "anonymous": false,
      "inputs": [
        {
          "indexed": false,
          "internalType": "address",
          "name": "account",
          "type": "address"
        }
      ],
      "name": "Unpaused",
      "type": "event"
    },
    {
      "inputs": [],
      "name": "claimReward",
      "outputs": [
        {
          "internalType": "bool",
          "name": "",
          "type": "bool"
        }
      ],
      "stateMutability": "nonpayable",
      "type": "function"
    },
    {
      "inputs": [],
      "name": "getTokenExpiry",
      "outputs": [
        {
          "internalType": "uint256",
          "name": "",
          "type": "uint256"
        }
      ],
      "stateMutability": "view",
      "type": "function"
    },
    {
      "inputs": [],
      "name": "interestRate",
      "outputs": [
        {
          "internalType": "uint8",
          "name": "",
          "type": "uint8"
        }
      ],
      "stateMutability": "view",
      "type": "function"
    },
    {
      "inputs": [],
      "name": "owner",
      "outputs": [
        {
          "internalType": "address",
          "name": "",
          "type": "address"
        }
      ],
      "stateMutability": "view",
      "type": "function"
    },
    {
      "inputs": [],
      "name": "pause",
      "outputs": [],
      "stateMutability": "nonpayable",
      "type": "function"
    },
    {
      "inputs": [],
      "name": "paused",
      "outputs": [
        {
          "internalType": "bool",
          "name": "",
          "type": "bool"
        }
      ],
      "stateMutability": "view",
      "type": "function"
    },
    {
      "inputs": [],
      "name": "planDuration",
      "outputs": [
        {
          "internalType": "uint256",
          "name": "",
          "type": "uint256"
        }
      ],
      "stateMutability": "view",
      "type": "function"
    },
    {
      "inputs": [],
      "name": "renounceOwnership",
      "outputs": [],
      "stateMutability": "nonpayable",
      "type": "function"
    },
    {
      "inputs": [
        {
          "internalType": "address",
          "name": "",
          "type": "address"
        }
      ],
      "name": "stakeInfos",
      "outputs": [
        {
          "internalType": "uint256",
          "name": "startTS",
          "type": "uint256"
        },
        {
          "internalType": "uint256",
          "name": "endTS",
          "type": "uint256"
        },
        {
          "internalType": "uint256",
          "name": "stakedAmount",
          "type": "uint256"
        },
        {
          "internalType": "uint256",
          "name": "claimed",
          "type": "uint256"
        }
      ],
      "stateMutability": "view",
      "type": "function"
    },
    {
      "inputs": [
        {
          "internalType": "uint256",
          "name": "stakeAmount",
          "type": "uint256"
        }
      ],
      "name": "stakeToken",
      "outputs": [],
      "stateMutability": "payable",
      "type": "function"
    },
    {
      "inputs": [],
      "name": "totalStakers",
      "outputs": [
        {
          "internalType": "uint8",
          "name": "",
          "type": "uint8"
        }
      ],
      "stateMutability": "view",
      "type": "function"
    },
    {
      "inputs": [
        {
          "internalType": "address",
          "name": "newOwner",
          "type": "address"
        }
      ],
      "name": "transferOwnership",
      "outputs": [],
      "stateMutability": "nonpayable",
      "type": "function"
    },
    {
      "inputs": [
        {
          "internalType": "address",
          "name": "to",
          "type": "address"
        },
        {
          "internalType": "uint256",
          "name": "amount",
          "type": "uint256"
        }
      ],
      "name": "transferToken",
      "outputs": [],
      "stateMutability": "nonpayable",
      "type": "function"
    },
    {
      "inputs": [],
      "name": "unpause",
      "outputs": [],
      "stateMutability": "nonpayable",
      "type": "function"
    }
  ],
  "bytecode": "0x6080604052603c600355600a600460006101000a81548160ff021916908360ff1602179055503480156200003257600080fd5b5060405162001df138038062001df1833981810160405281019062000058919062000254565b60008060006101000a81548160ff02191690831515021790555062000092620000866200017060201b60201c565b6200017860201b60201c565b60018081905550600073ffffffffffffffffffffffffffffffffffffffff168173ffffffffffffffffffffffffffffffffffffffff1614156200010c576040517f08c379a00000000000000000000000000000000000000000000000000000000081526004016200010390620002ad565b60405180910390fd5b80600260006101000a81548173ffffffffffffffffffffffffffffffffffffffff021916908373ffffffffffffffffffffffffffffffffffffffff1602179055506000600460016101000a81548160ff021916908360ff1602179055505062000396565b600033905090565b60008060019054906101000a900473ffffffffffffffffffffffffffffffffffffffff16905081600060016101000a81548173ffffffffffffffffffffffffffffffffffffffff021916908373ffffffffffffffffffffffffffffffffffffffff1602179055508173ffffffffffffffffffffffffffffffffffffffff168173ffffffffffffffffffffffffffffffffffffffff167f8be0079c531659141344cd1fd0a4f28419497f9722a3daafe3b4186f6b6457e060405160405180910390a35050565b6000815190506200024e816200037c565b92915050565b6000602082840312156200026d576200026c62000328565b5b60006200027d848285016200023d565b91505092915050565b600062000295602183620002cf565b9150620002a2826200032d565b604082019050919050565b60006020820190508181036000830152620002c88162000286565b9050919050565b600082825260208201905092915050565b6000620002ed8262000308565b9050919050565b60006200030182620002e0565b9050919050565b600073ffffffffffffffffffffffffffffffffffffffff82169050919050565b600080fd5b7f546f6b656e20416464726573732063616e6e6f7420626520616464726573732060008201527f3000000000000000000000000000000000000000000000000000000000000000602082015250565b6200038781620002f4565b81146200039357600080fd5b50565b611a4b80620003a66000396000f3fe6080604052600436106100dd5760003560e01c80638da5cb5b1161007f578063bfb5718d11610059578063bfb5718d14610252578063cda6b8471461027d578063dfbf9def14610299578063f2fde38b146102d9576100dd565b80638da5cb5b146101d15780639ffca906146101fc578063b88a802f14610227576100dd565b8063715018a6116100bb578063715018a61461014d5780637c3a00fd146101645780638456cb591461018f57806386989038146101a6576100dd565b80631072cbea146100e25780633f4ba83a1461010b5780635c975abb14610122575b600080fd5b3480156100ee57600080fd5b506101096004803603810190610104919061111e565b610302565b005b34801561011757600080fd5b50610120610489565b005b34801561012e57600080fd5b5061013761049b565b604051610144919061141d565b60405180910390f35b34801561015957600080fd5b506101626104b1565b005b34801561017057600080fd5b506101796104c5565b60405161018691906115f8565b60405180910390f35b34801561019b57600080fd5b506101a46104d8565b005b3480156101b257600080fd5b506101bb6104ea565b6040516101c891906115f8565b60405180910390f35b3480156101dd57600080fd5b506101e66104fd565b6040516101f391906113a2565b60405180910390f35b34801561020857600080fd5b50610211610526565b60405161021e9190611598565b60405180910390f35b34801561023357600080fd5b5061023c610603565b604051610249919061141d565b60405180910390f35b34801561025e57600080fd5b5061026761098d565b6040516102749190611598565b60405180910390f35b6102976004803603810190610292919061118b565b610993565b005b3480156102a557600080fd5b506102c060048036038101906102bb91906110f1565b610d47565b6040516102d094939291906115b3565b60405180910390f35b3480156102e557600080fd5b5061030060048036038101906102fb91906110f1565b610d77565b005b600060056000610310610dfb565b73ffffffffffffffffffffffffffffffffffffffff1673ffffffffffffffffffffffffffffffffffffffff16815260200190815260200160002060000154141561038f576040517f08c379a000000000000000000000000000000000000000000000000000000000815260040161038690611578565b60405180910390fd5b610397610e03565b600260009054906101000a900473ffffffffffffffffffffffffffffffffffffffff1673ffffffffffffffffffffffffffffffffffffffff1663a9059cbb83836040518363ffffffff1660e01b81526004016103f49291906113f4565b602060405180830381600087803b15801561040e57600080fd5b505af1158015610422573d6000803e3d6000fd5b505050506040513d601f19601f82011682018060405250810190610446919061115e565b610485576040517f08c379a000000000000000000000000000000000000000000000000000000000815260040161047c906114b8565b60405180910390fd5b5050565b610491610e03565b610499610e81565b565b60008060009054906101000a900460ff16905090565b6104b9610e03565b6104c36000610ee3565b565b600460009054906101000a900460ff1681565b6104e0610e03565b6104e8610fa8565b565b600460019054906101000a900460ff1681565b60008060019054906101000a900473ffffffffffffffffffffffffffffffffffffffff16905090565b60008060056000610535610dfb565b73ffffffffffffffffffffffffffffffffffffffff1673ffffffffffffffffffffffffffffffffffffffff1681526020019081526020016000206000015414156105b4576040517f08c379a00000000000000000000000000000000000000000000000000000000081526004016105ab90611578565b60405180910390fd5b600560006105c0610dfb565b73ffffffffffffffffffffffffffffffffffffffff1673ffffffffffffffffffffffffffffffffffffffff16815260200190815260200160002060010154905090565b60008060056000610612610dfb565b73ffffffffffffffffffffffffffffffffffffffff1673ffffffffffffffffffffffffffffffffffffffff168152602001908152602001600020600001541415610691576040517f08c379a000000000000000000000000000000000000000000000000000000000815260040161068890611578565b60405180910390fd5b426005600061069e610dfb565b73ffffffffffffffffffffffffffffffffffffffff1673ffffffffffffffffffffffffffffffffffffffff168152602001908152602001600020600101541061071c576040517f08c379a0000000000000000000000000000000000000000000000000000000008152600401610713906114d8565b60405180910390fd5b60006005600061072a610dfb565b73ffffffffffffffffffffffffffffffffffffffff1673ffffffffffffffffffffffffffffffffffffffff16815260200190815260200160002060030154146107a8576040517f08c379a000000000000000000000000000000000000000000000000000000000815260040161079f90611518565b60405180910390fd5b6000600560006107b6610dfb565b73ffffffffffffffffffffffffffffffffffffffff1673ffffffffffffffffffffffffffffffffffffffff16815260200190815260200160002060020154905060006064600460009054906101000a900460ff1660ff168361081891906116ab565b610822919061167a565b8261082d9190611624565b9050806005600061083c610dfb565b73ffffffffffffffffffffffffffffffffffffffff1673ffffffffffffffffffffffffffffffffffffffff1681526020019081526020016000205050600260009054906101000a900473ffffffffffffffffffffffffffffffffffffffff1673ffffffffffffffffffffffffffffffffffffffff1663a9059cbb6108be610dfb565b836040518363ffffffff1660e01b81526004016108dc9291906113f4565b602060405180830381600087803b1580156108f657600080fd5b505af115801561090a573d6000803e3d6000fd5b505050506040513d601f19601f8201168201806040525081019061092e919061115e565b50610937610dfb565b73ffffffffffffffffffffffffffffffffffffffff167fd8138f8a3f377c5259ca548e70e4c2de94f129f5a11036a15b69513cba2b426a8260405161097c9190611598565b60405180910390a260019250505090565b60035481565b6000600560006109a1610dfb565b73ffffffffffffffffffffffffffffffffffffffff1673ffffffffffffffffffffffffffffffffffffffff1681526020019081526020016000206000015414610a1f576040517f08c379a0000000000000000000000000000000000000000000000000000000008152600401610a1690611478565b60405180910390fd5b610a2761100a565b60008111610a6a576040517f08c379a0000000000000000000000000000000000000000000000000000000008152600401610a6190611438565b60405180910390fd5b80600260009054906101000a900473ffffffffffffffffffffffffffffffffffffffff1673ffffffffffffffffffffffffffffffffffffffff166370a08231610ab1610dfb565b6040518263ffffffff1660e01b8152600401610acd91906113a2565b60206040518083038186803b158015610ae557600080fd5b505afa158015610af9573d6000803e3d6000fd5b505050506040513d601f19601f82011682018060405250810190610b1d91906111b8565b1015610b5e576040517f08c379a0000000000000000000000000000000000000000000000000000000008152600401610b5590611558565b60405180910390fd5b600260009054906101000a900473ffffffffffffffffffffffffffffffffffffffff1673ffffffffffffffffffffffffffffffffffffffff166323b872dd610ba4610dfb565b30846040518463ffffffff1660e01b8152600401610bc4939291906113bd565b602060405180830381600087803b158015610bde57600080fd5b505af1158015610bf2573d6000803e3d6000fd5b505050506040513d601f19601f82011682018060405250810190610c1691906111b8565b506004600181819054906101000a900460ff1680929190610c369061175a565b91906101000a81548160ff021916908360ff16021790555050604051806080016040528042815260200160035442610c6e9190611624565b8152602001828152602001600081525060056000610c8a610dfb565b73ffffffffffffffffffffffffffffffffffffffff1673ffffffffffffffffffffffffffffffffffffffff16815260200190815260200160002060008201518160000155602082015181600101556040820151816002015560608201518160030155905050610cf7610dfb565b73ffffffffffffffffffffffffffffffffffffffff167f9e71bc8eea02a63969f509818f2dafb9254532904319f9dbda79b67bd34a5f3d82604051610d3c9190611598565b60405180910390a250565b60056020528060005260406000206000915090508060000154908060010154908060020154908060030154905084565b610d7f610e03565b600073ffffffffffffffffffffffffffffffffffffffff168173ffffffffffffffffffffffffffffffffffffffff161415610def576040517f08c379a0000000000000000000000000000000000000000000000000000000008152600401610de690611498565b60405180910390fd5b610df881610ee3565b50565b600033905090565b610e0b610dfb565b73ffffffffffffffffffffffffffffffffffffffff16610e296104fd565b73ffffffffffffffffffffffffffffffffffffffff1614610e7f576040517f08c379a0000000000000000000000000000000000000000000000000000000008152600401610e7690611538565b60405180910390fd5b565b610e89611054565b60008060006101000a81548160ff0219169083151502179055507f5db9ee0a495bf2e6ff9c91a7834c1ba4fdd244a5e8aa4e537bd38aeae4b073aa610ecc610dfb565b604051610ed991906113a2565b60405180910390a1565b60008060019054906101000a900473ffffffffffffffffffffffffffffffffffffffff16905081600060016101000a81548173ffffffffffffffffffffffffffffffffffffffff021916908373ffffffffffffffffffffffffffffffffffffffff1602179055508173ffffffffffffffffffffffffffffffffffffffff168173ffffffffffffffffffffffffffffffffffffffff167f8be0079c531659141344cd1fd0a4f28419497f9722a3daafe3b4186f6b6457e060405160405180910390a35050565b610fb061100a565b60016000806101000a81548160ff0219169083151502179055507f62e78cea01bee320cd4e420270b5ea74000d11b0c9f74754ebdbfc544b05a258610ff3610dfb565b60405161100091906113a2565b60405180910390a1565b61101261049b565b15611052576040517f08c379a0000000000000000000000000000000000000000000000000000000008152600401611049906114f8565b60405180910390fd5b565b61105c61049b565b61109b576040517f08c379a000000000000000000000000000000000000000000000000000000000815260040161109290611458565b60405180910390fd5b565b6000813590506110ac816119d0565b92915050565b6000815190506110c1816119e7565b92915050565b6000813590506110d6816119fe565b92915050565b6000815190506110eb816119fe565b92915050565b600060208284031215611107576111066117e2565b5b60006111158482850161109d565b91505092915050565b60008060408385031215611135576111346117e2565b5b60006111438582860161109d565b9250506020611154858286016110c7565b9150509250929050565b600060208284031215611174576111736117e2565b5b6000611182848285016110b2565b91505092915050565b6000602082840312156111a1576111a06117e2565b5b60006111af848285016110c7565b91505092915050565b6000602082840312156111ce576111cd6117e2565b5b60006111dc848285016110dc565b91505092915050565b6111ee81611705565b82525050565b6111fd81611717565b82525050565b6000611210601e83611613565b915061121b826117e7565b602082019050919050565b6000611233601483611613565b915061123e82611810565b602082019050919050565b6000611256601883611613565b915061126182611839565b602082019050919050565b6000611279602683611613565b915061128482611862565b604082019050919050565b600061129c601683611613565b91506112a7826118b1565b602082019050919050565b60006112bf601a83611613565b91506112ca826118da565b602082019050919050565b60006112e2601083611613565b91506112ed82611903565b602082019050919050565b6000611305600f83611613565b91506113108261192c565b602082019050919050565b6000611328602083611613565b915061133382611955565b602082019050919050565b600061134b601483611613565b91506113568261197e565b602082019050919050565b600061136e601783611613565b9150611379826119a7565b602082019050919050565b61138d81611743565b82525050565b61139c8161174d565b82525050565b60006020820190506113b760008301846111e5565b92915050565b60006060820190506113d260008301866111e5565b6113df60208301856111e5565b6113ec6040830184611384565b949350505050565b600060408201905061140960008301856111e5565b6114166020830184611384565b9392505050565b600060208201905061143260008301846111f4565b92915050565b6000602082019050818103600083015261145181611203565b9050919050565b6000602082019050818103600083015261147181611226565b9050919050565b6000602082019050818103600083015261149181611249565b9050919050565b600060208201905081810360008301526114b18161126c565b9050919050565b600060208201905081810360008301526114d18161128f565b9050919050565b600060208201905081810360008301526114f1816112b2565b9050919050565b60006020820190508181036000830152611511816112d5565b9050919050565b60006020820190508181036000830152611531816112f8565b9050919050565b600060208201905081810360008301526115518161131b565b9050919050565b600060208201905081810360008301526115718161133e565b9050919050565b6000602082019050818103600083015261159181611361565b9050919050565b60006020820190506115ad6000830184611384565b92915050565b60006080820190506115c86000830187611384565b6115d56020830186611384565b6115e26040830185611384565b6115ef6060830184611384565b95945050505050565b600060208201905061160d6000830184611393565b92915050565b600082825260208201905092915050565b600061162f82611743565b915061163a83611743565b9250827fffffffffffffffffffffffffffffffffffffffffffffffffffffffffffffffff0382111561166f5761166e611784565b5b828201905092915050565b600061168582611743565b915061169083611743565b9250826116a05761169f6117b3565b5b828204905092915050565b60006116b682611743565b91506116c183611743565b9250817fffffffffffffffffffffffffffffffffffffffffffffffffffffffffffffffff04831182151516156116fa576116f9611784565b5b828202905092915050565b600061171082611723565b9050919050565b60008115159050919050565b600073ffffffffffffffffffffffffffffffffffffffff82169050919050565b6000819050919050565b600060ff82169050919050565b60006117658261174d565b915060ff82141561177957611778611784565b5b600182019050919050565b7f4e487b7100000000000000000000000000000000000000000000000000000000600052601160045260246000fd5b7f4e487b7100000000000000000000000000000000000000000000000000000000600052601260045260246000fd5b600080fd5b7f5374616b6520616d6f756e742073686f756c6420626520636f72726563740000600082015250565b7f5061757361626c653a206e6f7420706175736564000000000000000000000000600082015250565b7f596f7520616c7265616479207061727469636970617465640000000000000000600082015250565b7f4f776e61626c653a206e6577206f776e657220697320746865207a65726f206160008201527f6464726573730000000000000000000000000000000000000000000000000000602082015250565b7f546f6b656e207472616e73666572206661696c65642100000000000000000000600082015250565b7f5374616b652054696d65206973206e6f74206f76657220796574000000000000600082015250565b7f5061757361626c653a2070617573656400000000000000000000000000000000600082015250565b7f416c726561647920636c61696d65640000000000000000000000000000000000600082015250565b7f4f776e61626c653a2063616c6c6572206973206e6f7420746865206f776e6572600082015250565b7f496e73756666696369656e742042616c616e6365000000000000000000000000600082015250565b7f596f75206e65656420746f2068617665207374616b6564000000000000000000600082015250565b6119d981611705565b81146119e457600080fd5b50565b6119f081611717565b81146119fb57600080fd5b50565b611a0781611743565b8114611a1257600080fd5b5056fea264697066735822122033c9c6cf8ed5d29731394929f8721533d0ace3bda04d7d039cc8d8bed22268d464736f6c63430008070033",
  "linkReferences": {},
  "deployedLinkReferences": {}
}